{
  "contractName": "StringsContract",
  "abi": [
    {
      "inputs": [],
      "stateMutability": "nonpayable",
      "type": "constructor"
    },
    {
      "inputs": [
        {
          "internalType": "string",
          "name": "text",
          "type": "string"
        },
        {
          "internalType": "uint8",
          "name": "index",
          "type": "uint8"
        }
      ],
      "name": "charAt",
      "outputs": [
        {
          "internalType": "bytes1",
          "name": "",
          "type": "bytes1"
        }
      ],
      "stateMutability": "pure",
      "type": "function",
      "constant": true
    }
  ],
  "bytecode": "0x608060405234801561001057600080fd5b50610335806100206000396000f3fe608060405234801561001057600080fd5b506004361061002b5760003560e01c806377e503e414610030575b600080fd5b61004a6004803603810190610045919061021e565b610060565b60405161005791906102b5565b60405180910390f35b6000828260ff1681518110610078576100776102d0565b5b602001015160f81c60f81b905092915050565b6000604051905090565b600080fd5b600080fd5b600080fd5b600080fd5b6000601f19601f8301169050919050565b7f4e487b7100000000000000000000000000000000000000000000000000000000600052604160045260246000fd5b6100f2826100a9565b810181811067ffffffffffffffff82111715610111576101106100ba565b5b80604052505050565b600061012461008b565b905061013082826100e9565b919050565b600067ffffffffffffffff8211156101505761014f6100ba565b5b610159826100a9565b9050602081019050919050565b82818337600083830152505050565b600061018861018384610135565b61011a565b9050828152602081018484840111156101a4576101a36100a4565b5b6101af848285610166565b509392505050565b600082601f8301126101cc576101cb61009f565b5b81356101dc848260208601610175565b91505092915050565b600060ff82169050919050565b6101fb816101e5565b811461020657600080fd5b50565b600081359050610218816101f2565b92915050565b6000806040838503121561023557610234610095565b5b600083013567ffffffffffffffff8111156102535761025261009a565b5b61025f858286016101b7565b925050602061027085828601610209565b9150509250929050565b60007fff0000000000000000000000000000000000000000000000000000000000000082169050919050565b6102af8161027a565b82525050565b60006020820190506102ca60008301846102a6565b92915050565b7f4e487b7100000000000000000000000000000000000000000000000000000000600052603260045260246000fdfea264697066735822122072cd640beac7d0c9cd81153a6f926c58a856c0d2685296830f4113a851f1c22464736f6c634300080b0033",
  "immutableReferences": {},
  "source": "// SPDX-License-Identifier: MIT\npragma solidity >=0.4.22 <0.9.0;\n\ncontract StringsContract {\n  constructor() public {\n  }\n\n  function charAt(string memory text, uint8 index) public pure returns (bytes1) {\n    // require(index < bytes(text).length, \"Index out of range\");\n    return bytes(text)[index];\n  }\n}\n",
  "sourcePath": "/Users/alexandruserban/Documents/Work/Web Development/Learning/Udacity/udacity-blockchain-developer-nanodegree/2-ethereum/2-solidity/9-string-and-bytes-types/contracts/StringsContract.sol",
  "compiler": {
    "name": "solc",
    "version": "0.8.11+commit.d7f03943.Emscripten.clang"
  },
  "schemaVersion": "3.4.5",
  "updatedAt": "2022-03-01T10:47:18.185Z",
  "networkType": "ethereum",
  "devdoc": {
    "kind": "dev",
    "methods": {},
    "version": 1
  },
  "userdoc": {
    "kind": "user",
    "methods": {},
    "version": 1
  }
}